:020000040000FA
:060000009BEF01F012006D
:020006000000F8
:08000800D9CFE6FFE1CFD9FFDB
:10001000040EE126DE6ADE6ADE6ADD6ADD52DD524A
:10002000D9CFE9FFDACFEAFFD890030EEB50000AF0
:1000300008E6C40EEE5C860EEE58000EEE58000E7A
:10004000EE580AE2D9CFE9FFDACFEAFFEE2A000E36
:10005000EE22EE22EE22E4D7040EE15C02E2E16A37
:10006000E552E16EE552E7CFD9FF1200D9CFE6FFA6
:10007000E1CFD9FF040EE126DE6ADE6ADE6ADD6AC0
:10008000DD52DD52D9CFE9FFDACFEAFFD890030E77
:10009000EB50000A08E6A30EEE5C020EEE58000ECE
:1000A000EE58000EEE580AE2D9CFE9FFDACFEAFFA8
:1000B000EE2A000EEE22EE22EE22E4D7040EE15CE0
:1000C00002E2E16AE552E16EE552E7CFD9FF1200A4
:1000D000956A959A9598959C12008398839A839C2B
:1000E000836AC4DF030E836E838CC0DF839CBEDF14
:1000F000030E836E838CBADF839CB8DF030E836E9E
:10010000838CB4DF839CB2DF020E836E838CAEDF00
:10011000839CACDF020E836E838CA8DF839CA6DFFA
:10012000010E836E838CA2DF839CA0DF836A838CA5
:100130009DDF839C9BDF0F0E836E838C97DF839CF8
:1001400036EF00F0838C92DF839C36EF00F0D9CF3E
:10015000E6FFE1CFD9FFE552E7CFD9FF1200D9CFB3
:10016000E6FFE1CFD9FF8388F00E8316FE0EDB3861
:100170000F0B8312E7DFF00E8316FE0EDB500F0B22
:100180008312E0DFE552E7CFD9FF1200D9CFE6FFB7
:10019000E1CFD9FF020EE126DE6ADD6ADECF02F092
:1001A000DDCF03F0D890035004E61E0E025C000E73
:1001B000035805E2DF2A010E01E3DB2AEFD7020E26
:1001C000E15C02E2E16AE552E16EE552E7CFD9FF78
:1001D0001200D9CFE6FFE1CFD9FF080EE126D9CF33
:1001E000E9FFDACFEAFF4F0EEE6E6C0EEE6E610E97
:1001F000EE6E200EEE6E4D0EEE6E750EEE6E620E13
:10020000D36EC168936A64DF68DF060EDB6A070E8F
:10021000DB6A060EDBCF02F0070EDBCF03F0060E23
:10022000025C000E035816E2D9CF02F0DACF03F0D9
:10023000060EDB500224E96E070EDB500320EA6E47
:10024000EF50E66E8CDFE552060EDB2A070E01E367
:10025000DB2ADFD7D9DE816AD7DED6DE010E816EDA
:10026000D3DEF9D7080EE15C02E2E16AE552E16E05
:08027000E552E7CFD9FF1200AF
:08027800060EF66E000EF76E93
:10028000000EF86E00010900F550856F0900F55069
:10029000866F03E1856701D03DD00900F550806F7E
:1002A0000900F550816F0900F550826F09000900BF
:1002B000F550E96E0900F550EA6E090009000900E1
:1002C000F550836F0900F550846F09000900F6CFDF
:1002D00087F0F7CF88F0F8CF89F080C0F6FF81C0B3
:1002E000F7FF82C0F8FF0001835302E1845307E067
:1002F0000900F550EE6E8307F8E28407F9D787C04E
:10030000F6FF88C0F7FF89C0F8FF00018507000EDF
:06031000865BBFD712005E
:0A031600000EF36E00EE00F0060E7C
:1003200001D81200EA6002D0EE6AFCD7F350E9600F
:060330001200EE6AFCD78A
:0A03360015EE00F025EE00F0F86A65
:10034000019C3CEC01F0A9EC01F0E9EC00F0FBD7DA
:02035000120099
:02035200120097
:020000040030CA
:010005008179
:00000001FF
