:020000040000FA
:060000009FEF00F012006A
:020006000000F8
:08000800060EF66E000EF76E05
:10001000000EF86E00010900F550856F0900F550DB
:10002000866F03E1856701D03DD00900F550806FF0
:100030000900F550816F0900F550826F0900090031
:10004000F550E96E0900F550EA6E09000900090053
:10005000F550836F0900F550846F09000900F6CF51
:1000600087F0F7CF88F0F8CF89F080C0F6FF81C025
:10007000F7FF82C0F8FF0001835302E1845307E0D9
:100080000900F550EE6E8307F8E28407F9D787C0C0
:10009000F6FF88C0F7FF89C0F8FF00018507000E52
:0600A000865BBFD71200D1
:0A00A600D9CFE6FFE1CFD9FF040E29
:1000B000E126DE6ADE6ADE6ADD6ADD52DD52D9CF14
:1000C000E9FFDACFEAFFD890030EEB50000A08E60A
:1000D000500EEE5CC30EEE58000EEE58000EEE58B9
:1000E0000AE2D9CFE9FFDACFEAFFEE2A000EEE22CC
:1000F000EE22EE22E4D7040EE15C02E2E16AE55270
:10010000E16EE552E7CFD9FF1200FE0E936E816ECD
:0E0110008168C9DFFE0E816EC6DFFAD71200CD
:02011E00000ED1
:10012000F36E00EE00F0060E01D81200EA6002D075
:0E013000EE6AFCD7F350E9601200EE6AFCD7CD
:02013E0015EEBC
:1001400000F025EE00F0F86A019C04EC00F0ADEC44
:0A01500000F085EC00F0FBD7120070
:02015A00120091
:00000001FF
